:100000000C942A000C9447000C9447000C94470071
:100010000C9447000C9447000C9447000C945F0824
:100020000C9447000C9447000C9447000C94470034
:100030000C9447000C94CB000C9447000C944700A0
:100040000C9447000C9447000C9447000C94470014
:100050000C94470011241FBECFE5D8E0DEBFCDBF12
:1000600011E0A0E6B0E0E6EAF1E102C005900D92F1
:10007000AE32B107D9F713E0AEE2B1E001C01D9294
:10008000AC38B107E1F70E9449000C94D1080C94F8
:100090000000AF92BF92CF92DF92EF92FF920F9348
:1000A0000E94F4000E94BA0084EB90E00E94C1001C
:1000B0008CE690E060E070E048EC50E020E030E05A
:1000C00005E0EE24FF24CC24DD24AA24BB240E94D6
:1000D00040040E943F05FFCF0F931F93CF93DF9300
:1000E0000BE010E0C6E1D0E090912E01809130014C
:1000F000891710F4993010F0992311F4909330017E
:1001000010922F0118C081E00E94FC0580913001FF
:1001100090E08C9FF0018D9FF00D9C9FF00D1124BD
:10012000E05AFF4F808191810E94570380912F01F7
:100130008F5F80932F0120912F018091300190E0FB
:10014000809FF001819FF00D909FF00D1124E20F30
:10015000F11DEE0FFF1FEE59FF4F608171818FEF90
:100160006F3F780709F2CFCF0E94BF008053809382
:100170002E01089581E06FEF0E946A0508958CB109
:100180000895009711F481E00895909332018093CF
:10019000310180E008951F920F920FB60F92112443
:1001A0002F933F934F935F936F937F938F939F937F
:1001B000AF93BF93EF93FF93E0913101F091320140
:1001C000309709F00995FF91EF91BF91AF919F9101
:1001D0008F917F916F915F914F913F912F910F90F0
:1001E0000FBE0F901F9018950E94AD068AB18869C6
:1001F0008AB980B5866880BD83E389B910BC08954B
:10020000809139018F5F8093390108950FB6F8947A
:100210000F9220913701309138010F900FBEC90124
:1002200008952091370130913801C90108958091D6
:100230003C01089580913901882351F081E0809339
:100240003501089580913A01815080933A0101C0AF
:1002500099E0E0913A01E99FF0011124EF5BFE4F34
:100260008081882379F390913A0189E0989FD001A9
:100270001124AF5BBE4F1196ED91FC911297028055
:10028000F381E02D1296FC93EE931197CD01039626
:10029000E817F90731F48281938112969C938E932B
:1002A00011971196ED91FC91129786819781909309
:1002B0003401809333010895FC01809136018083DD
:1002C0008091370190913801928381830895FC01D8
:1002D000DB010FB6F8940F92909136018081981748
:1002E00049F020913701309138018181928128179E
:1002F000390718F5809137019091380121813281B9
:100300004D915C911197821B930B84179507A8F46C
:100310008091370190913801281B390B240F351F2C
:100320002D933C9380913601808380913701909189
:1003300038019283818380E001C081E00F900FBE7D
:10034000089581E08093350108950F931F93CF9313
:10035000DF93FC010580F681E02D06811781E8011D
:100360002C96CE010E945E07809139018823A9F462
:10037000E8012296CE010E945E07D80156969C9114
:1003800080913A01891710F490933A0189E0989F7F
:10039000C00111248F5B9E4F02C084E891E0BE0132
:1003A0000E940007E0913301F091340120E0D80170
:1003B00056969C918689981708F021E0822FDF914C
:1003C000CF911F910F910895FF920F931F93CF9399
:1003D000DF9380913901882309F08FC08091370124
:1003E0009091380101969093380180933701809164
:1003F000370190913801892B79F520918001309156
:100400008101809182019091830190938101809379
:1004100080013093830120938201809136018F5FA8
:1004200080933601E0918001F091810180818823E1
:1004300019F48FEF9FEF0CC0E0918001F0918101E2
:100440000580F681E02D0680F781E02D8281938181
:1004500090932C0180932B0120913701309138012A
:1004600080912B0190912C012817390708F44AC07C
:1004700089E0F82EE0918001F0918101808188234C
:1004800039F48FEF9FEF90932C0180932B013AC0AA
:10049000E0918001F09181010580F681E02DC68117
:1004A000D7812A813B818091370190913801821751
:1004B000930728F430932C0120932B0123C08E0145
:1004C0000E5F1F4FC8010E945E078C899D89892B92
:1004D00021F0CE010C960E945E079E8980913A0120
:1004E000891710F490933A019F9DC00111248F5BEE
:1004F0009E4FB8010E940007BDCF80913B018F5FE6
:1005000080933B01DF91CF911F910F91FF90089550
:10051000CF93DF93EC01E0913301F09134019383A9
:1005200082838091370190913801C817D90768F408
:100530008091820190918301609133017091340127
:100540006E5F7F4F0E94290717C0809180019091B4
:10055000810160913301709134016E5F7F4F0E9481
:10056000290780912B0190912C01C817D90720F4FD
:10057000D0932C01C0932B01DF91CF9108950F935D
:100580001F938B016091330170913401645F7F4F41
:100590000E942907809133019091340102960E94B4
:1005A0005E078091370190913801800F911F0E9462
:1005B00088021F910F910895CF92DF92FF920F93BF
:1005C0001F93DF93CF930F92CDB7DEB70FB6F8949A
:1005D0000F928091390181508093390180913901C6
:1005E000882309F058C080913C01882309F453C046
:1005F000198299E0F92E2DC0E0918901F0918A01CC
:10060000C680D780C6010C960E945E0786010E5FE9
:100610001F4FC8010E945E07D60156969C9180919B
:100620003A01891710F490933A019F9DC00111245B
:100630008F5B9E4FB8010E940007E0913301F0915B
:100640003401D60156969C918689981710F0B1E036
:10065000B98380918401882379F680913B018823B6
:1006600041F40CC00E94E40180913B0181508093D1
:100670003B0180913B018823A9F707C0E981E13064
:1006800021F080913501813031F4109235010E94C2
:10069000620881E001C080E00F900FBE0F90CF9103
:1006A000DF911F910F91FF90DF90CF9008950F93EE
:1006B0001F93CF93DF93EC010097C9F0809139012C
:1006C0008F5F80933901009137011091380180913B
:1006D00033019091340102960E945E07CE01800F93
:1006E000911F0E9488020E94DC02882311F40E945C
:1006F0006208DF91CF911F910F910895CF93DF93FF
:10070000FC01EB01809139018F5F809339012081D9
:100710003181C20FD31F8091370190913801821728
:10072000930728F4C217D30728F020E00CC0C217A3
:10073000D30740F0809137019091380120E08C1769
:100740009D0708F421E0D183C083222351F08091DA
:1007500033019091340102960E945E07CE010E94FF
:1007600088020E94DC02882311F40E946208DF9153
:10077000CF910895EF92FF920F931F93CF93DF9342
:100780008C010FB6F8940F9280913301909134014F
:100790000817190719F400E010E003C0011511054E
:1007A00029F4C0913301D091340101C0E80122E065
:1007B000E22EF12CEC0EFD1EC7010E945E078C8913
:1007C0009D89892B21F0CE010C960E945E078DE851
:1007D00091E0B7010E94000780913E018F5F8093F6
:1007E0003E0180913F018F5F80933F010F900FBECC
:1007F00080913D01882321F0012B11F40E946208B1
:10080000DF91CF911F910F91FF90EF900895F89491
:1008100010923D010E94030808950F931F93809149
:100820003E018823E1F3809139018F5F8093390184
:1008300010918D010E94DC02112389F30FB6F89408
:100840000F92E0919201F091930106811781C80106
:1008500002960E945E0780913C01815080933C018A
:1008600080913E01815080933E010F900FBEF801B0
:100870008789908D0E94B506C8010E94B506CFCF2A
:100880002F923F924F925F927F928F929F92AF9260
:10089000BF92CF92DF92EF92FF920F931F93CF936D
:1008A000DF931C014B015A012901702EE60181E200
:1008B00090E00E94C5066C01009771F0209721F42A
:1008C000C5010E94C506EC01F601D08FC78B2097A9
:1008D00029F4C6010E94B5068FEFBFC0CE0165EABC
:1008E00070E0A5010E94BB080894A108B108F601B8
:1008F000C789D08DCA0DDB1DC6014996B40148E0F9
:1009000050E00E94C208F60110A2072DF4E0F7158E
:1009100008F404E0F601068B42E0A42EB12CAC0CE6
:10092000BD1CC5010E94FC06C6010C960E94FC0677
:10093000F601D186C08685E090E0801B91099587FD
:100940008487D38AC28ACE01B101A2010E948607A0
:10095000F60191838083E114F10419F0F701D1824B
:10096000C0820FB6F8940F9280913C018F5F809304
:100970003C018091330190913401892B79F5D0921B
:100980003401C092330180913C018130B1F5C1E462
:10099000D1E0CE010E94EC062996F1E0CE36DF07C9
:1009A000C1F73EE6E32E31E0F32EC7010E94EC06CC
:1009B00007E711E0C8010E94EC0684E891E00E947C
:1009C000EC068DE891E00E94EC06F0928101E09245
:1009D000800110938301009382010FC080913D013B
:1009E000882359F4E0913301F09134018689781617
:1009F00020F0D0923401C0923301F60196898091A3
:100A00004001891710F49093400180913F018F5F5E
:100A100080933F01F601968980913A01891710F47D
:100A200090933A01F601868929E0829FC001112442
:100A30008F5B9E4FB5010E9400070F900FBE809103
:100A40003D01882349F0E0913301F091340186891A
:100A5000871510F40E94620881E0DF91CF911F9109
:100A60000F91FF90EF90DF90CF90BF90AF909F904D
:100A70008F907F905F904F903F902F900895AF920E
:100A8000BF92CF92DF92EF92FF920F938DE094E0AE
:100A900066E271E045E550E020E030E000E0EE2461
:100AA000FF24CC24DD24AA24BB240E9440048130EE
:100AB00049F4F89480933D01109238011092370167
:100AC0000E94CE070F91FF90EF90DF90CF90BF90E4
:100AD000AF900895823061F0833018F4813069F46A
:100AE00005C0833039F0843041F406C06ABB0895F4
:100AF00067BB089564BB089561BB0895683008F032
:100B00007AC04130D1F58230B9F0833020F48130A1
:100B100009F071C006C08330D1F0843009F06BC099
:100B200021C02AB381E090E002C0880F991F6A9526
:100B3000E2F7282B2ABB089527B381E090E002C09A
:100B4000880F991F6A95E2F7282B27BB089524B3D5
:100B500081E090E002C0880F991F6A95E2F7282B88
:100B600024BB089521B381E090E002C0880F991F53
:100B70006A95E2F7282B21BB0895442309F03BC076
:100B80008230B1F0833018F48130A9F505C083308C
:100B9000D9F0843081F524C02AB381E090E002C00E
:100BA000880F991F6A95E2F7809582238ABB089582
:100BB00027B381E090E002C0880F991F6A95E2F7A1
:100BC0008095822387BB089524B381E090E002C022
:100BD000880F991F6A95E2F78095822384BB089558
:100BE00021B381E090E002C0880F991F6A95E2F777
:100BF0008095822381BB0895823061F0833018F4A0
:100C0000813069F405C0833039F0843041F406C086
:100C10006BBB089568BB089565BB089562BB0895DA
:100C2000683008F07AC04130D1F58230B9F08330B5
:100C300020F4813009F071C006C08330D1F08430D7
:100C400009F06BC021C02BB381E090E002C0880F97
:100C5000991F6A95E2F7282B2BBB089528B381E0F2
:100C600090E002C0880F991F6A95E2F7282B28BBF5
:100C7000089525B381E090E002C0880F991F6A951E
:100C8000E2F7282B25BB089522B381E090E002C053
:100C9000880F991F6A95E2F7282B22BB08954423F9
:100CA00009F03BC08230B1F0833018F48130A9F5EF
:100CB00005C08330D9F0843081F524C02BB381E0A6
:100CC00090E002C0880F991F6A95E2F78095822311
:100CD0008BBB089528B381E090E002C0880F991F74
:100CE0006A95E2F78095822388BB089525B381E059
:100CF00090E002C0880F991F6A95E2F780958223E1
:100D000085BB089522B381E090E002C0880F991F4F
:100D10006A95E2F78095822382BB08956830D8F403
:100D2000823061F0833018F48130A9F405C083303B
:100D300039F0843081F406C089B305C086B303C09E
:100D400083B301C080B390E002C0959587956A9502
:100D5000E2F78170089580E008958FB780688FBFB3
:100D600008958FB78F778FBF0895089510929701D8
:100D700010929601089524EF31E0809196019091B0
:100D80009701281B390BC90108950F931F93CF9327
:100D9000DF938C010E940001809196019091970150
:100DA0009801280F391F41E0243F340758F4821777
:100DB000930740F4EC01C856DE4F3093970120931F
:100DC000960102C0C0E0D0E00E94DC02CE01DF91BB
:100DD000CF911F910F910895FC019C012D5F3F4F12
:100DE000328321838FEF9FEF948383833683258320
:100DF0003087278310820895FC011186108608959C
:100E0000CF93DF93AC01DB01EC0129813A81F90139
:100E10008281938113969C938E93129789819A81F4
:100E200015969C938E9314970280F381E02D758321
:100E30006483E9017B836A83FA0172836183199673
:100E40005C934E93189780818F5F8083DF91CF9161
:100E50000895CF93DF939C01EB01488159818FEF77
:100E60004F3F580721F4F901A781B08510C0D9017F
:100E7000139604C012960D90BC91A02D1296ED9180
:100E8000FC911397808191814817590798F7129622
:100E9000ED91FC911397FB83EA83D583C483BD83D3
:100EA000AC831396DC93CE93129739872887F90188
:100EB00080818F5F8083DF91CF910895CF93DF93FF
:100EC000DC011296ED91FC91139714968D919C91F3
:100ED0001597958384831496CD91DC911597FB83A8
:100EE000EA831896ED91FC911997818192818A1776
:100EF0009B0711F4D283C18319961C921E921897F6
:100F0000808181508083DF91CF910895FC0191E130
:100F1000908322E2229383E38293629372931292EC
:100F200080E88293129282E0829383E0829384E04D
:100F3000829385E0829386E0829387E0829388E0C3
:100F4000829389E0829380E18293929382E18293FB
:100F500083E1829384E1829385E1829386E18293A7
:100F600087E1829388E1829389E1829380E2829390
:100F700081E28293229383E282934293529386E2A8
:100F8000829387E2829388E2829389E2829380E36C
:100F9000829381E382933197CF0108951BBC8CE744
:100FA0008ABD8BE08EBD89B7806189BFA091330176
:100FB000B0913401CD91CDBFDD91DEBFFF91EF91B6
:100FC000DF91CF91BF91AF919F918F917F916F9161
:100FD0005F914F913F912F911F910F91FF90EF9053
:100FE000DF90CF90BF90AF909F908F907F906F9049
:100FF0005F904F903F902F901F900F900FBE0F90DB
:10100000089581E0089508950F920FB6F8940F9215
:101010001F9211242F923F924F925F926F927F9274
:101020008F929F92AF92BF92CF92DF92EF92FF92F8
:101030000F931F932F933F934F935F936F937F93E0
:101040008F939F93AF93BF93CF93DF93EF93FF93D0
:10105000A0913301B09134010DB60D920EB60D92F0
:101060000E94E4010E941A01A0913301B091340161
:10107000CD91CDBFDD91DEBFFF91EF91DF91CF919B
:10108000BF91AF919F918F917F916F915F914F91A0
:101090003F912F911F910F91FF90EF90DF90CF9094
:1010A000BF90AF909F908F907F906F905F904F9088
:1010B0003F902F901F900F900FBE0F9008950E94A9
:1010C000040818950F920FB6F8940F921F921124EE
:1010D0002F923F924F925F926F927F928F929F9248
:1010E000AF92BF92CF92DF92EF92FF920F931F9336
:1010F0002F933F934F935F936F937F938F939F9320
:10110000AF93BF93CF93DF93EF93FF93A0913301FE
:10111000B09134010DB60D920EB60D920E941A01D7
:10112000A0913301B0913401CD91CDBFDD91DEBFEF
:10113000FF91EF91DF91CF91BF91AF919F918F91EF
:101140007F916F915F914F913F912F911F910F91DF
:10115000FF90EF90DF90CF90BF90AF909F908F90D7
:101160007F906F905F904F903F902F901F900F90C7
:101170000FBE0F900895DC0101C06D9341505040A7
:10118000E0F70895FB01DC014150504048F0019028
:101190000D920020C9F701C01D9241505040E0F768
:0611A0000895F894FFCF52
:1011A60001000000FFFF000000000000000000003A
:1011B600000000000000F401FF000000FFFF000037
:1011C600000000000000000000000000FA0080009F
:1011D6004000200010000800040002000100FFFF8C
:1011E6000000FA00010002000400080010002000C0
:1011F60040008000FFFF00002C0118002400420080
:101206008100FFFF00000000000000000000FA005F
:101216008100420024001800FFFF000000000000CB
:10122600000000002C0102000800200080004000A1
:10123600100004000100FFFF00002C01E000700018
:1012460038001C000E0007008300C100FFFF0000ED
:101256002C018100C300E700FF00FF00E700C30088
:0E126600FFFF0000000049444C4500FFFF0060
:00000001FF
